{
    "contractName": "Election",
    "abi": [
        {
            "constant": true,
            "inputs": [],
            "name": "candidatesCount",
            "outputs": [
                {
                    "name": "",
                    "type": "uint256"
                }
            ],
            "payable": false,
            "stateMutability": "view",
            "type": "function"
        },
        {
            "constant": true,
            "inputs": [
                {
                    "name": "",
                    "type": "uint256"
                }
            ],
            "name": "candidates",
            "outputs": [
                {
                    "name": "id",
                    "type": "uint256"
                },
                {
                    "name": "name",
                    "type": "string"
                },
                {
                    "name": "voteCount",
                    "type": "uint256"
                }
            ],
            "payable": false,
            "stateMutability": "view",
            "type": "function"
        },
        {
            "inputs": [],
            "payable": false,
            "stateMutability": "nonpayable",
            "type": "constructor"
        }
    ],
    "bytecode": "608060405234801561001057600080fd5b5060408051808201909152600b81527f43616e64696461746520310000000000000000000000000000000000000000006020820152610057906401000000006100a2810204565b60408051808201909152600b81527f43616e6469646174652032000000000000000000000000000000000000000000602082015261009d906401000000006100a2810204565b610199565b6001805481018082556040805160608101825282815260208082018681526000838501819052948552848252929093208151815591518051919492936100ed938501929101906100fe565b506040820151816002015590505050565b828054600181600116156101000203166002900490600052602060002090601f016020900481019282601f1061013f57805160ff191683800117855561016c565b8280016001018555821561016c579182015b8281111561016c578251825591602001919060010190610151565b5061017892915061017c565b5090565b61019691905b808211156101785760008155600101610182565b90565b610203806101a86000396000f3fe60806040526004361061004b5763ffffffff7c01000000000000000000000000000000000000000000000000000000006000350416632d35a8a281146100505780633477ee2e14610077575b600080fd5b34801561005c57600080fd5b50610065610127565b60408051918252519081900360200190f35b34801561008357600080fd5b506100a16004803603602081101561009a57600080fd5b503561012d565b6040518084815260200180602001838152602001828103825284818151815260200191508051906020019080838360005b838110156100ea5781810151838201526020016100d2565b50505050905090810190601f1680156101175780820380516001836020036101000a031916815260200191505b5094505050505060405180910390f35b60015481565b600060208181529181526040908190208054600180830180548551600293821615610100026000190190911692909204601f81018790048702830187019095528482529194929390928301828280156101c75780601f1061019c576101008083540402835291602001916101c7565b820191906000526020600020905b8154815290600101906020018083116101aa57829003601f168201915b505050505090806002015490508356fea165627a7a7230582002eeac912e7eecfd879a5de53d0abb86663d321ac32ce69ab30050133b2dff730029",
    "sourcePath": "c:/Users/dev07/election/contracts/Election.sol",
    "compiler": {
        "name": "solc",
        "version": "0.5.0+commit.1d4f565a"
    },
    "functionHashes": {
        "candidates(uint256)": "3477ee2e",
        "candidatesCount()": "2d35a8a2"
    },
    "gasEstimates": {
        "creation": {
            "codeDepositCost": "103000",
            "executionCost": "infinite",
            "totalCost": "infinite"
        },
        "external": {
            "candidates(uint256)": "infinite",
            "candidatesCount()": "384"
        },
        "internal": {
            "addCandidate(string memory)": "infinite"
        }
    }
}